:020000040000FA
:100000000C945D000C9485000C9485000C94850084
:100010000C9485000C9485000C9485000C9485004C
:100020000C9485000C9485000C9485000C9485003C
:100030000C9485000C9485000C9485000C9485002C
:100040000C9466050C9485000C94D6050C94B005B0
:100050000C9485000C9485000C9485000C9485000C
:100060000C9485000C94850000000008000201003B
:100070000003040700000000000000000000000072
:10008000250028002B0000000000240027002A0083
:10009000040404040404040402020202020203032E
:1000A0000303030301020408102040800102040836
:1000B0001020010204081020080611241FBECFEFF3
:1000C000D8E0DEBFCDBF22E0A2EDB1E001C01D92BD
:1000D000A83AB207E1F711E0A0E0B1E0E6E5FCE103
:1000E00002C005900D92A23DB107D9F710E0CDE511
:1000F000D0E004C02197FE010E94310CCC35D1071D
:10010000C9F70E9453060C94290E0C94000090E04D
:10011000FC01EC55FF4F249180579F4FFC018491C7
:10012000882399F090E0880F991FFC01EA57FF4F50
:10013000A591B491FC01E458FF4F859194918FB73C
:10014000F894EC91E22BEC938FBF089590E0FC01C2
:10015000E859FF4F2491FC01EC55FF4F3491FC010D
:10016000E057FF4FE491EE23C9F0222339F023300A
:1001700001F1A8F4213019F1223029F1F0E0EE0F5D
:10018000FF1FE458FF4FA591B4918FB7F894EC91FD
:10019000611126C030953E233C938FBF08952730D0
:1001A000A9F02830C9F0243049F7809180008F7D74
:1001B00003C0809180008F7780938000DFCF84B56B
:1001C0008F7784BDDBCF84B58F7DFBCF8091B0006E
:1001D0008F778093B000D2CF8091B0008F7DF9CF20
:1001E0003E2BDACF8E50806480937C0080917A0021
:1001F000806480937A0080917A0086FDFCCF8091A4
:1002000078009091790008953FB7F8948091EB01C0
:100210009091EC01A091ED01B091EE0126B5A89B63
:1002200005C02F3F19F00196A11DB11D3FBFBA2F88
:10023000A92F982F8827BC01CD01620F711D811D48
:10024000911D42E0660F771F881F991F4A95D1F7CD
:1002500008958F929F92AF92BF92CF92DF92EF92CA
:10026000FF920E9404014B015C0180EDC82E87E0E3
:10027000D82EE12CF12C0E940401681979098A0911
:100280009B09683E734081059105A8F321E0C21ADD
:10029000D108E108F10888EE880E83E0981EA11CC1
:1002A000B11CC114D104E104F10429F7FF90EF90CF
:1002B000DF90CF90BF90AF909F908F900895AF92B6
:1002C000BF92CF92DF92EF92FF920F931F93CF9343
:1002D000DF936C017B018B01040F151FEB015E01A5
:1002E000AE18BF08C017D10759F06991D601ED913A
:1002F000FC910190F081E02DC6010995892B79F7D9
:10030000C501DF91CF911F910F91FF90EF90DF908A
:10031000CF90BF90AF900895FC01538D448D252F51
:1003200030E0842F90E0821B930B541710F0CF968F
:10033000089501970895FC01918D828D981761F0C1
:10034000A28DAE0FBF2FB11D5D968C91928D9F5FD8
:100350009F73928F90E008958FEF9FEF0895FC01B7
:10036000918D828D981731F0828DE80FF11D858D6A
:1003700090E008958FEF9FEF0895FC01918D228DFD
:10038000892F90E0805C9F4F821B91098F73992782
:1003900008958FEE91E00E94BD0121E0892B09F4C0
:1003A00020E0822F089580E090E0892B29F00E94C0
:1003B000C90181110C9400000895FC01A48DA80FBF
:1003C000B92FB11DA35ABF4F2C91848D90E0019697
:1003D0008F739927848FA689B7892C93A089B189B7
:1003E0008C91837080648C93938D848D981306C058
:1003F0000288F389E02D80818F7D80830895EF92BC
:10040000FF920F931F93CF93DF93EC0181E0888FCE
:100410009B8D8C8D98131AC0E889F989808185FF9E
:1004200015C09FB7F894EE89FF896083E889F98940
:1004300080818370806480839FBF81E090E0DF9142
:10044000CF911F910F91FF90EF900895F62E0B8D95
:1004500010E00F5F1F4F0F731127E02E8C8D8E1150
:100460000CC00FB607FCFACFE889F989808185FFB7
:10047000F5CFCE010E94DD01F1CFEB8DEC0FFD2F0A
:10048000F11DE35AFF4FF0829FB7F8940B8FEA8972
:10049000FB8980818062CFCFCF93DF93EC01888D81
:1004A0008823B9F0AA89BB89E889F9898C9185FDEF
:1004B00003C0808186FD0DC00FB607FCF7CF8C917D
:1004C00085FFF2CF808185FFEDCFCE010E94DD0157
:1004D000E9CFDF91CF910895089590E080E00895ED
:1004E000CF93DF93EC0160E08E810E94A60061E073
:1004F0008E810E94A60060E08E810E94A6008BE89B
:1005000091E00197F1F7DF91CF910895CF92DF92BB
:10051000EF92FF920F931F93CF93DF936C017C01B7
:1005200087E0E80EF11CD0E0C0E0062F10E0B80133
:100530000C2E02C0759567950A94E2F76170F70179
:1005400081917F010E94A6002196C430D10579F7E0
:10055000C601DF91CF911F910F91FF90EF90DF9037
:10056000CF900C947002CF92DF92EF92FF920F9394
:100570001F93CF93DF93EC01F62E642F8C810E94A2
:10058000A6008D818F3F19F060E00E94A6000F2D1C
:1005900010E08F8584FF25C06E0187E0C80ED11C56
:1005A000F12CE12CB8010E2C02C0759567950A94C8
:1005B000E2F76170F60181916F010E94A600FFEFE2
:1005C000EF1AFF0A88E0E816F10461F7CE01DF9127
:1005D000CF911F910F91FF90EF90DF90CF900C94EF
:1005E0007002B80184E0759567958A95E1F7CE01B0
:1005F0000E9486026F2DCE01DF91CF911F910F9146
:10060000FF90EF90DF90CF900C94860240E0682F2F
:100610008CE892E00C94B30281E00E9406038BE325
:100620009FE10197F1F70895CF93DF93613029F0AF
:1006300090919B02986090939B0260939F0210920E
:10064000A00290E49093A1028093A202805C809328
:10065000A302809190020E948700809191028F3FB7
:1006600011F00E948700809192020E948700CCE8DE
:10067000D2E09E012C58324080919B0284FD0AC03A
:1006800084E090E02196281739073CF48E810E947F
:100690008700EFCF88E090E0F5CF8BE39DE00197F6
:1006A000F1F760E0809190020E94A60060E08091E6
:1006B00092020E94A600809191028F3F19F060E0A3
:1006C0000E94A60080919B0284FD34C063E08CE808
:1006D00092E00E948602CBE4D6E4CE010197F1F7C6
:1006E00063E08CE892E00E9486022197F1F763E0D4
:1006F0008CE892E00E94860283E592E00197F1F790
:1007000062E08CE892E00E94860280919B02806207
:100710000E94060384E080939C028CE00E94060302
:100720000E940C0382E080939D0286E0DF91CF91CE
:100730000C94060380620E9406038BE496E4019702
:10074000F1F780919B0280620E94060383E592E0AC
:100750000197F1F780919B0280620E940603D5CF3A
:1007600090919F02891710F08FEF890FE82FF0E02A
:10077000E457FD4F848980680C94060341E00E9491
:10078000B30281E090E00895FB0101900020E9F7B9
:100790003197AF01461B570BDC01ED91FC910280B4
:1007A000F381E02D09948F929F92AF92BF92EF92C6
:1007B000FF920F931F93CF93DF93CDB7DEB7A1972F
:1007C0000FB6F894DEBF0FBECDBF7C01FA01CB019E
:1007D00019A2223008F42AE08E010F5D1F4F822EED
:1007E000912CB12CA12CBF01A50194010E940F0CEA
:1007F000F901CA016A300CF5605DD8016E938D0174
:10080000232B242B252B79F790E080E0109721F003
:10081000BD01C7010E94C403A1960FB6F894DEBFC4
:100820000FBECDBFDF91CF911F910F91FF90EF9041
:10083000BF90AF909F908F900895695CDECFBC0110
:100840008CE892E00C94C4034F925F926F927F9277
:100850008F929F92AF92BF92CF92DF92EF92FF92D0
:100860000F931F93CF936B017C01742EAC019B01FE
:100870000E940A0C68E271E0811126C0460157010E
:10088000E894B7F82FEF3FEF4FE75FE7C501B401FA
:100890000E940A0C81110CC02FEF3FEF4FE75FE77A
:1008A000C501B4010E9495096CE271E0181664F06C
:1008B0002FEF3FEF4FE75FE4C701B6010E94050C41
:1008C0001816ACF460E371E08CE892E0CF911F91D0
:1008D0000F91FF90EF90DF90CF90BF90AF909F90DF
:1008E0008F907F906F905F904F900C94C4032FEF88
:1008F0003FEF4FE75FECC701B6010E94950987FD06
:10090000E1CF20E030E0A901C701B6010E949509BE
:1009100010E000E087FF0CC041E06DE28CE892E05F
:100920000E94B302F7FAF094F7F8F09401E010E0B7
:10093000C0E060E070E080E09FE37C1641F020E0E2
:1009400030E040E251E40E945D0BCF5FF6CFA7019B
:1009500096010E94F10A4B015C010E94D60B2B010B
:100960003C012AE0BC01A2018CE892E00E94D30382
:10097000080F191FCC23D9F1C301B2010E949A09B3
:100980009B01AC01C501B4010E94F00A4B015C015E
:1009900041E06EE28CE892E00E94B3020F5F1F4FCD
:1009A000C15028F120E030E040E251E4C501B4013B
:1009B0000E94FB092B013C010E94D60B4B01B12C7C
:1009C000A12C2AE0B501A4018CE892E00E94D30397
:1009D000080F191FC501B4010E949A099B01AC01BF
:1009E000C301B2010E94F00A4B015C01D9CFC801DA
:1009F000CF911F910F91FF90EF90DF90CF90BF901C
:100A0000AF909F908F907F906F905F904F900895E0
:100A10000F931F93CF93DF93EC0188819981009707
:100A200059F02A813B812617370730F081E0DF91AA
:100A3000CF911F910F9108958B016F5F7F4F0E949F
:100A40005C0D009759F0998388831B830A832C815E
:100A50003D81232B59F7FC011082E8CF80E0E7CFDE
:100A6000EF92FF920F931F93CF93DF93EC017B01E3
:100A7000FB0101900020E9F731978F01061B170B4E
:100A8000B8010E94080528813981811113C0211500
:100A9000310519F0C9010E94D30C198218821D82F8
:100AA0001C821B821A82DF91CF911F910F91FF90C0
:100AB000EF9008951D830C83B701C901DF91CF9199
:100AC0001F910F91FF90EF900C94220E1F920F92A6
:100AD0000FB60F9211242F933F938F939F93AF9351
:100AE000BF938091E7019091E801A091E901B09155
:100AF000EA013091E60123E0230F2D3758F50196E6
:100B0000A11DB11D2093E6018093E7019093E801B8
:100B1000A093E901B093EA018091EB019091EC017F
:100B2000A091ED01B091EE010196A11DB11D809340
:100B3000EB019093EC01A093ED01B093EE01BF9116
:100B4000AF919F918F913F912F910F900FBE0F907A
:100B50001F90189526E8230F0296A11DB11DD2CF34
:100B60001F920F920FB60F9211242F933F934F9322
:100B70005F936F937F938F939F93AF93BF93EF9305
:100B8000FF938FEE91E00E94DD01FF91EF91BF9105
:100B9000AF919F918F917F916F915F914F913F9115
:100BA0002F910F900FBE0F901F9018951F920F92CC
:100BB0000FB60F9211242F938F939F93EF93FF9370
:100BC000E091FF01F09100028081E0910502F09137
:100BD000060282FD1BC09081809108028F5F8F7397
:100BE00020910902821741F0E0910802F0E0E15102
:100BF000FE4F958F80930802FF91EF919F918F9107
:100C00002F910F900FBE0F901F9018958081F4CFF9
:100C1000EFEEF1E01382128288EE93E0A0E0B0E004
:100C200084839583A683B7838EE091E0918380834C
:100C300085EC90E09587848784EC90E097878687A1
:100C400080EC90E0918B808B81EC90E0938B828B99
:100C500082EC90E0958B848B86EC90E0978B868B72
:100C6000118E128E138E148EECE8F2E01382128233
:100C700080E291E0918380838DE084838FEF858390
:100C80008CE086838BE087838AE0808789E0818798
:100C900088E082871386148615861686178661E09B
:100CA00080E10C941403CF93DF9300D000D000D0E8
:100CB000CDB7DEB7789484B5826084BD84B5816099
:100CC00084BD85B5826085BD85B5816085BD809117
:100CD0006E00816080936E0010928100809181008F
:100CE0008260809381008091810081608093810087
:100CF000809180008160809380008091B100846049
:100D00008093B1008091B00081608093B0008091A9
:100D10007A00846080937A0080917A008260809368
:100D20007A0080917A00816080937A0080917A00C5
:100D3000806880937A001092C100E091FF01F091E9
:100D4000000282E08083E091FB01F091FC011082BF
:100D5000E091FD01F091FE018FEC8083109207027B
:100D6000E0910302F091040286E08083E0910102A9
:100D7000F0910202808180618083E0910102F09114
:100D80000202808188608083E0910102F09102027A
:100D9000808180688083E0910102F091020280816D
:100DA0008F7D808364E084E10E94140380E00E94D0
:100DB000B00384E391E00E941F0481E00E94B0032D
:100DC0008BE491E00E941F042FB7F8948091E70113
:100DD0009091E801A091E901B091EA012FBF8093C1
:100DE000D6019093D701A093D801B093D90100E028
:100DF00010E08EE00E94F2006C01990FEE08FF08EF
:100E00002AE0B701A601F7FE0DC06DE28FEE91E07A
:100E10000E94FF0144275527BA014C195D096E094C
:100E20007F092AE08FEE91E00E94D3036BE671E028
:100E30008FEE91E00E94C4038FE00E94F200BC019B
:100E4000990F880B990B0E949C0920E030E040EA42
:100E500050E40E94FB0920E030EC4FE754E40E948C
:100E60005D0B20E030E040EA50E40E94FB094B01BA
:100E70005C0180E10E94F200BC01990F880B990B84
:100E80000E949C0920E030E040EA50E40E94FB0907
:100E900020E030EC4FE754E40E945D0B20E030E0AE
:100EA00040EA50E40E94FB096093E2017093E30181
:100EB0008093E4019093E5018EE00E94F200BC0172
:100EC000990F880B990B0E949C0920E030E040E8C4
:100ED0005AE30E94FB0920E030E44CE955E40E940B
:100EE000FB0920E030E44CE155E40E94F00A20E0E8
:100EF00030E049E353E40E945D0B6B017C0120E08C
:100F000030E0A9010E94050C181624F0F7FAF094BD
:100F1000F7F8F094C092DE01D092DF01E092E00198
:100F2000F092E101A7019601C501B4010E94FB09FD
:100F30006093DA017093DB018093DC019093DD0113
:100F40008FB7F894C090E701D090E801E090E901F4
:100F5000F090EA018FBF8091D6019091D701A091C6
:100F6000D801B091D901A7019601281B390B4A0B72
:100F70005B0BCA01B9010E949A0920E03AEB4BE5EC
:100F80005AE40E945D0B2091DA013091DB0140911F
:100F9000DC015091DD010E94FB099B01AC016091D5
:100FA000D2017091D3018091D4019091D5010E941A
:100FB000F10A6093D2017093D3018093D40190938E
:100FC000D501C092D601D092D701E092D801F0921B
:100FD000D9011A8219821C821B821E821D8270E036
:100FE00060E0CE0101960E94080529813A818111B5
:100FF00077C12115310519F0C9010E94D30C1A825D
:1010000019821E821D821C821B8220E030E040E893
:101010005FE36091E2017091E3018091E4019091BE
:10102000E5010E94F10A9B01AC01C501B4010E94D7
:10103000050C18160CF069C1C0900001D090010198
:10104000E0900201F09003016EE671E0CE0101969E
:101050000E9430052DEC3CEC4CEC5DE36091DE0130
:101060007091DF018091E0019091E1010E94FB0904
:10107000A70196010E94F10A6B017C0120E030E09B
:1010800048EC52E40E94050C18160CF431C1C092D1
:101090000001D0920101E0920201F0920301C090A0
:1010A0000001D0900101E0900201F090030120E0E6
:1010B00030E0A901C701B6010E94950987FD2CC146
:1010C00020E030E048EC52E4C701B6010E94050C74
:1010D000181634F4C12CD12C88ECE82E82E4F82EBA
:1010E000C0920001D0920101E0920201F09203014E
:1010F0000E940C0380E00E94B0038FE791E00E9401
:101100001F0481E00E94B00380E991E00E941F0467
:1011100041E0C501B4010E94240483E991E00E94EA
:101120001F0482E00E94B00385E991E00E941F0441
:101130006091DE017091DF018091E0019091E10109
:1011400041E00E94240488E991E00E941F040E946B
:1011500029010E940C0380E00E94B0038AE991E01B
:101160000E941F0481E00E94B0038BEA91E00E947C
:101170001F046091D2017091D3018091D4019091AC
:10118000D50143E00E9424048EEA91E00E941F04EE
:1011900082E00E94B00381EB91E00E941F04609105
:1011A000DA017091DB018091DC019091DD0142E078
:1011B0000E94240484EB91E00E941F040E942901F4
:1011C0000E940C0380E00E94B00386EB91E00E9435
:1011D0001F0481E00E94B00385EC91E00E941F048F
:1011E0006091E2017091E3018091E4019091E50149
:1011F00042E00E94240483E991E00E941F0482E0FF
:101200000E94B00389EC91E00E941F04C09000018D
:10121000D0900101E0900201F090030120E030E065
:10122000A901C701B6010E94050C20E030E040E0B2
:101230005FE387FD75C0C701B6010E94F10A0E94F5
:10124000CF0B6B017C012AE0BC01A601F7FE0EC0AA
:1012500041E06DE28CE892E00E94B30244275527FA
:10126000BA014C195D096E097F092AE08CE892E009
:101270000E94D3038EEC91E00E941F0485E991E067
:101280000E941F046091DE017091DF018091E001F6
:101290009091E10141E00E94240488E991E00E94DC
:1012A0001F0483E00E94B0034D815E8169817A81D1
:1012B0008CE892E00E945F010E94290189819A8155
:1012C000009711F00E94D30C0115110509F491CD7E
:1012D0000E94C901882309F48CCD0E94000089CDA9
:1012E0001E821D826DE671E0C9010E94220E8DCE24
:1012F00080E090E0A8ECB2E48093000190930101BB
:10130000A0930201B0930301CACE67E771E0CE015A
:1013100001960E943005C3CEC12CD12C7601E0CEBF
:10132000C701B6010E94F00A8ACF0E94D70908F4CB
:1013300081E00895E89409C097FB3EF4909580956C
:10134000709561957F4F8F4F9F4F9923A9F0F92F8B
:1013500096E9BB279395F695879577956795B79509
:10136000F111F8CFFAF4BB0F11F460FF1BC06F5FEF
:101370007F4F8F4F9F4F16C0882311F096E911C001
:10138000772321F09EE8872F762F05C0662371F022
:1013900096E8862F70E060E02AF09A95660F771F36
:1013A000881FDAF7880F9695879597F90895990F12
:1013B0000008550FAA0BE0E8FEEF16161706E8071F
:1013C000F907C0F012161306E407F50798F0621B40
:1013D000730B840B950B39F40A2661F0232B242B15
:1013E000252B21F408950A2609F4A140A6958FEF34
:1013F000811D811D08950E940E0A0C947F0A0E948F
:10140000710A38F00E94780A20F0952311F00C94AC
:10141000680A0C946E0A11240C94B30A0E94900A74
:1014200070F3959FC1F3950F50E0551F629FF00137
:10143000729FBB27F00DB11D639FAA27F00DB11D50
:10144000AA1F649F6627B00DA11D661F829F2227D9
:10145000B00DA11D621F739FB00DA11D621F839F60
:10146000A00D611D221F749F3327A00D611D231F36
:10147000849F600D211D822F762F6A2F11249F5784
:1014800050409AF0F1F088234AF0EE0FFF1FBB1F87
:10149000661F771F881F91505040A9F79E3F510546
:1014A00080F00C94680A0C94B30A5F3FE4F3983E12
:1014B000D4F3869577956795B795F795E7959F5FF0
:1014C000C1F7FE2B880F911D9695879597F9089582
:1014D00097F99F6780E870E060E008959FEF80ECE7
:1014E000089500240A94161617061806090608958A
:1014F00000240A9412161306140605060895092EF0
:101500000394000C11F4882352F0BB0F40F4BF2B5E
:1015100011F460FF04C06F5F7F4F8F4F9F4F08959E
:1015200057FD9058440F551F59F05F3F71F0479594
:10153000880F97FB991F61F09F3F79F08795089579
:10154000121613061406551FF2CF4695F1DF08C098
:10155000161617061806991FF1CF869571056105B5
:1015600008940895E894BB2766277727CB0197F95D
:1015700008952F923F924F925F926F927F928F9237
:101580009F92AF92BF92CF92DF92EF92FF920F9312
:101590001F93CF93DF93CDB7DEB7CA1BDB0B0FB61C
:1015A000F894DEBF0FBECDBF09942A8839884888D9
:1015B0005F846E847D848C849B84AA84B984C8846F
:1015C000DF80EE80FD800C811B81AA81B981CE0F66
:1015D000D11D0FB6F894DEBF0FBECDBFED0108954B
:1015E0005058BB27AA270E94080B0C947F0A0E9420
:1015F000710A38F00E94780A20F039F49F3F19F4FC
:1016000026F40C946E0A0EF4E095E7FB0C94680A3D
:10161000E92F0E94900A58F3BA17620773078407EC
:10162000950720F079F4A6F50C94B20A0EF4E09533
:101630000B2EBA2FA02D0B01B90190010C01CA018C
:10164000A0011124FF27591B99F0593F50F4503E37
:1016500068F11A16F040A22F232F342F4427585F29
:10166000F3CF469537952795A795F0405395C9F741
:101670007EF41F16BA0B620B730B840BBAF09150F9
:10168000A1F0FF0FBB1F661F771F881FC2F70EC098
:10169000BA0F621F731F841F48F48795779567956B
:1016A000B795F7959E3F08F0B0CF9395880F08F057
:1016B0009927EE0F9795879508950E94710B0C94CA
:1016C0007F0A0E94780A58F00E94710A40F029F4BB
:1016D0005F3F29F00C94680A51110C94B30A0C94E2
:1016E0006E0A0E94900A68F39923B1F3552391F38F
:1016F000951B550BBB27AA2762177307840738F081
:101700009F5F5F4F220F331F441FAA1FA9F335D0DD
:101710000E2E3AF0E0E832D091505040E695001C91
:10172000CAF72BD0FE2F29D0660F771F881FBB1F4B
:10173000261737074807AB07B0E809F0BB0B802D29
:10174000BF01FF2793585F4F3AF09E3F510578F055
:101750000C94680A0C94B30A5F3FE4F3983ED4F308
:10176000869577956795B795F7959F5FC9F7880F29
:10177000911D9695879597F90895E1E0660F771F7B
:10178000881FBB1F621773078407BA0720F0621B0C
:10179000730B840BBA0BEE1F88F7E09508950E9437
:1017A000D60B6894B1110C94B30A08950E94980A5C
:1017B00088F09F5798F0B92F9927B751B0F0E1F012
:1017C000660F771F881F991F1AF0BA95C9F714C0C2
:1017D000B13091F00E94B20AB1E008950C94B20ABF
:1017E000672F782F8827B85F39F0B93FCCF38695FB
:1017F00077956795B395D9F73EF490958095709558
:1018000061957F4F8F4F9F4F08950E94D70908F42D
:101810008FEF08950E94D709880B990B0895A1E2D4
:101820001A2EAA1BBB1BFD010DC0AA1FBB1FEE1F5A
:10183000FF1FA217B307E407F50720F0A21BB30BA5
:10184000E40BF50B661F771F881F991F1A9469F721
:1018500060957095809590959B01AC01BD01CF017D
:101860000895EE0FFF1F0590F491E02D09940F935A
:101870001F93CF93DF938230910510F482E090E0C4
:10188000E091A602F091A70230E020E0B0E0A0E0F5
:10189000309799F42115310509F44AC0281B390BFA
:1018A00024303105D8F58A819B816115710589F154
:1018B000FB0193838283FE0111C04081518102812B
:1018C000138148175907E0F04817590799F4109702
:1018D00061F012960C93129713961C933296CF01D7
:1018E000DF91CF911F910F9108950093A60210935D
:1018F000A702F4CF2115310551F04217530738F0F4
:10190000A901DB019A01BD01DF01F801C1CFEF019F
:10191000F9CF9093A7028093A602CDCFFE01E20FEC
:10192000F31F819391932250310939832883D7CFB4
:101930002091A4023091A502232B41F420910601AD
:10194000309107013093A5022093A4022091040155
:10195000309105012115310541F42DB73EB7409175
:10196000080150910901241B350BE091A402F0916C
:10197000A502E217F307A0F42E1B3F0B2817390727
:1019800078F0AC014E5F5F4F2417350748F04E0FDB
:101990005F1F5093A5024093A402819391939FCF20
:1019A000F0E0E0E09CCFCF93DF930097E9F0FC01FB
:1019B000329713821282A091A602B091A702ED0184
:1019C00030E020E01097A1F420813181820F931F35
:1019D0002091A4023091A5022817390709F061C0AF
:1019E000F093A502E093A402DF91CF910895EA015C
:1019F000CE17DF07E8F54A815B819E01411551054D
:101A0000B1F7E901FB83EA8349915991C40FD51FCE
:101A1000EC17FD0761F4808191810296840F951F78
:101A2000E90199838883828193819B838A83F0E093
:101A3000E0E012968D919C9113970097B9F52D9146
:101A40003C911197CD010296820F931F2091A40221
:101A50003091A5022817390739F6309751F51092C1
:101A6000A7021092A602B093A502A093A402BCCF35
:101A7000D383C28340815181840F951FC817D90732
:101A800061F44E5F5F4F88819981480F591F5183E0
:101A900040838A819B81938382832115310509F0DC
:101AA000B0CFF093A702E093A6029ECFFD01DC0128
:101AB000C0CF13821282D7CFB0E0A0E0E2E6FDE013
:101AC0000C94BB0A8C01009751F4CB010E94370C97
:101AD0008C01C801CDB7DEB7E0E10C94D70AFC0158
:101AE000E60FF71F9C0122503109E217F30708F4B3
:101AF0009DC0D901CD91DC911197C617D70798F0F9
:101B0000C530D10530F3CE0104978617970708F347
:101B1000C61BD70B2297C193D1936D937C93CF01B2
:101B20000E94D30CD6CF5B01AC1ABD0A4C018C0EBF
:101B30009D1EA091A602B091A702512C412CF12C20
:101B4000E12C109731F58091A4029091A50288159F
:101B5000990509F05CC04616570608F058C08091F8
:101B6000040190910501009741F48DB79EB7409113
:101B7000080150910901841B950BE817F90708F03B
:101B800055C0F093A502E093A402F901718360832C
:101B9000A0CF8D919C91119712966C9012971396ED
:101BA0007C901397A815B90559F56C0142E0C40E55
:101BB000D11CCA14DB0420F1AC014A195B09DA011B
:101BC0001296159780F06282738251834083D90107
:101BD0006D937C93E114F10471F0D7011396FC939B
:101BE000EE93129776CF22968C0F9D1FF901918369
:101BF0008083F301EFCFF093A702E093A60269CFB1
:101C00004816590608F42C017D01D3019ACFCB0167
:101C10000E94370C7C01009749F0AE01B8010E9488
:101C2000190EC8010E94D30C870153CF10E000E0C9
:101C300050CFFB01DC0102C001900D924150504099
:101C4000D8F70895FB01DC0101900D920020E1F727
:101C50000895F894FFCF0000F0410000A802800032
:101C600000000000FF015F018C014C02BD019B01DF
:101C7000AF0100000000BE035F016D026C026E61E7
:101C80006E00696E66006F7666002020544845201D
:101C9000425249474854204C49474854202020206C
:101CA000002020534F4C4152204D4F4E49544F522B
:101CB000494E4720202020202020202020202020A6
:101CC000000D0A004368617267696E6700537461B2
:101CD0006E64627900534F4C4152204D4F4E49542F
:101CE0004F52494E4700563D005600493D004100C5
:101CF000454E455247592047454E4552415445446B
:101D000000453D00576800503D0057004241545483
:101D1000455259205354415455530056423D0053A7
:081D20004F433D0025200000A7
:107E0000112484B714BE81FFF0D085E080938100F7
:107E100082E08093C00088E18093C10086E0809377
:107E2000C20080E18093C4008EE0C9D0259A86E02C
:107E300020E33CEF91E0309385002093840096BBD3
:107E4000B09BFECF1D9AA8958150A9F7CC24DD24C4
:107E500088248394B5E0AB2EA1E19A2EF3E0BF2EE7
:107E6000A2D0813461F49FD0082FAFD0023811F036
:107E7000013811F484E001C083E08DD089C08234E0
:107E800011F484E103C0853419F485E0A6D080C0E4
:107E9000853579F488D0E82EFF2485D0082F10E0AE
:107EA000102F00270E291F29000F111F8ED06801E7
:107EB0006FC0863521F484E090D080E0DECF843638
:107EC00009F040C070D06FD0082F6DD080E0C81688
:107ED00080E7D80618F4F601B7BEE895C0E0D1E017
:107EE00062D089930C17E1F7F0E0CF16F0E7DF06D8
:107EF00018F0F601B7BEE89568D007B600FCFDCFD4
:107F0000A601A0E0B1E02C9130E011968C91119780
:107F100090E0982F8827822B932B1296FA010C0160
:107F200087BEE89511244E5F5F4FF1E0A038BF0790
:107F300051F7F601A7BEE89507B600FCFDCF97BE46
:107F4000E89526C08437B1F42ED02DD0F82E2BD052
:107F50003CD0F601EF2C8F010F5F1F4F84911BD097
:107F6000EA94F801C1F70894C11CD11CFA94CF0C13
:107F7000D11C0EC0853739F428D08EE10CD085E9AC
:107F80000AD08FE07ACF813511F488E018D01DD067
:107F900080E101D065CF982F8091C00085FFFCCF94
:107FA0009093C60008958091C00087FFFCCF809118
:107FB000C00084FD01C0A8958091C6000895E0E648
:107FC000F0E098E1908380830895EDDF803219F02E
:107FD00088E0F5DFFFCF84E1DECF1F93182FE3DFCA
:107FE0001150E9F7F2DF1F91089580E0E8DFEE27F6
:047FF000FF270994CA
:027FFE00040479
:00000001FF
